{
    "contractName": "Game",
    "abi": [
        {
            "anonymous": false,
            "inputs": [
                {
                    "indexed": false,
                    "internalType": "uint256",
                    "name": "gameId",
                    "type": "uint256"
                },
                {
                    "indexed": true,
                    "internalType": "address",
                    "name": "user",
                    "type": "address"
                },
                {
                    "indexed": false,
                    "internalType": "enum Game.BetOption",
                    "name": "option",
                    "type": "uint8"
                },
                {
                    "indexed": false,
                    "internalType": "uint256",
                    "name": "amount",
                    "type": "uint256"
                }
            ],
            "name": "Bet",
            "type": "event"
        },
        {
            "anonymous": false,
            "inputs": [
                {
                    "indexed": false,
                    "internalType": "uint256",
                    "name": "gameId",
                    "type": "uint256"
                },
                {
                    "indexed": true,
                    "internalType": "address",
                    "name": "user",
                    "type": "address"
                },
                {
                    "indexed": false,
                    "internalType": "uint256",
                    "name": "reward",
                    "type": "uint256"
                }
            ],
            "name": "ClaimReward",
            "type": "event"
        },
        {
            "anonymous": false,
            "inputs": [
                {
                    "indexed": false,
                    "internalType": "uint256",
                    "name": "gameId",
                    "type": "uint256"
                },
                {
                    "indexed": false,
                    "internalType": "uint256",
                    "name": "rollAfter",
                    "type": "uint256"
                }
            ],
            "name": "GameCreated",
            "type": "event"
        },
        {
            "anonymous": false,
            "inputs": [
                {
                    "indexed": true,
                    "internalType": "address",
                    "name": "previousOwner",
                    "type": "address"
                },
                {
                    "indexed": true,
                    "internalType": "address",
                    "name": "newOwner",
                    "type": "address"
                }
            ],
            "name": "OwnershipTransferred",
            "type": "event"
        },
        {
            "anonymous": false,
            "inputs": [
                {
                    "indexed": false,
                    "internalType": "uint256",
                    "name": "gameId",
                    "type": "uint256"
                },
                {
                    "indexed": false,
                    "internalType": "uint256[6]",
                    "name": "results",
                    "type": "uint256[6]"
                }
            ],
            "name": "Rolled",
            "type": "event"
        },
        {
            "inputs": [
                {
                    "internalType": "uint256",
                    "name": "gameId",
                    "type": "uint256"
                },
                {
                    "internalType": "enum Game.BetOption",
                    "name": "option",
                    "type": "uint8"
                },
                {
                    "internalType": "uint256",
                    "name": "amount",
                    "type": "uint256"
                }
            ],
            "name": "betOnGame",
            "outputs": [],
            "stateMutability": "nonpayable",
            "type": "function"
        },
        {
            "inputs": [
                {
                    "internalType": "uint256",
                    "name": "",
                    "type": "uint256"
                },
                {
                    "internalType": "address",
                    "name": "",
                    "type": "address"
                }
            ],
            "name": "bets",
            "outputs": [
                {
                    "internalType": "enum Game.BetOption",
                    "name": "option",
                    "type": "uint8"
                },
                {
                    "internalType": "uint256",
                    "name": "amount",
                    "type": "uint256"
                },
                {
                    "internalType": "bool",
                    "name": "claimed",
                    "type": "bool"
                }
            ],
            "stateMutability": "view",
            "type": "function"
        },
        {
            "inputs": [
                {
                    "internalType": "uint256",
                    "name": "gameId",
                    "type": "uint256"
                }
            ],
            "name": "claimWinAmount",
            "outputs": [],
            "stateMutability": "nonpayable",
            "type": "function"
        },
        {
            "inputs": [
                {
                    "internalType": "address",
                    "name": "player",
                    "type": "address"
                }
            ],
            "name": "countPlayerBets",
            "outputs": [
                {
                    "internalType": "uint256",
                    "name": "",
                    "type": "uint256"
                }
            ],
            "stateMutability": "view",
            "type": "function"
        },
        {
            "inputs": [
                {
                    "internalType": "uint256",
                    "name": "_rollAfter",
                    "type": "uint256"
                }
            ],
            "name": "createGame",
            "outputs": [],
            "stateMutability": "nonpayable",
            "type": "function"
        },
        {
            "inputs": [
                {
                    "internalType": "address",
                    "name": "player",
                    "type": "address"
                },
                {
                    "internalType": "uint256",
                    "name": "cursor",
                    "type": "uint256"
                },
                {
                    "internalType": "uint256",
                    "name": "howMany",
                    "type": "uint256"
                }
            ],
            "name": "fetchPlayerBets",
            "outputs": [
                {
                    "components": [
                        {
                            "internalType": "enum Game.BetOption",
                            "name": "option",
                            "type": "uint8"
                        },
                        {
                            "internalType": "uint256",
                            "name": "amount",
                            "type": "uint256"
                        },
                        {
                            "internalType": "bool",
                            "name": "claimed",
                            "type": "bool"
                        },
                        {
                            "internalType": "uint256",
                            "name": "gameId",
                            "type": "uint256"
                        },
                        {
                            "internalType": "uint256",
                            "name": "winAmount",
                            "type": "uint256"
                        },
                        {
                            "internalType": "uint256[6]",
                            "name": "results",
                            "type": "uint256[6]"
                        }
                    ],
                    "internalType": "struct Game.BetPlayerInfo[]",
                    "name": "values",
                    "type": "tuple[]"
                },
                {
                    "internalType": "uint256",
                    "name": "newCursor",
                    "type": "uint256"
                }
            ],
            "stateMutability": "view",
            "type": "function"
        },
        {
            "inputs": [
                {
                    "internalType": "uint256",
                    "name": "",
                    "type": "uint256"
                }
            ],
            "name": "games",
            "outputs": [
                {
                    "internalType": "enum Game.GameStatus",
                    "name": "status",
                    "type": "uint8"
                },
                {
                    "internalType": "uint256",
                    "name": "rollAfter",
                    "type": "uint256"
                }
            ],
            "stateMutability": "view",
            "type": "function"
        },
        {
            "inputs": [],
            "name": "getNextRoll",
            "outputs": [
                {
                    "internalType": "uint256",
                    "name": "",
                    "type": "uint256"
                }
            ],
            "stateMutability": "view",
            "type": "function"
        },
        {
            "inputs": [
                {
                    "internalType": "uint256",
                    "name": "gameId",
                    "type": "uint256"
                }
            ],
            "name": "getResults",
            "outputs": [
                {
                    "internalType": "uint256[6]",
                    "name": "",
                    "type": "uint256[6]"
                }
            ],
            "stateMutability": "view",
            "type": "function"
        },
        {
            "inputs": [
                {
                    "internalType": "uint256",
                    "name": "gameId",
                    "type": "uint256"
                },
                {
                    "internalType": "address",
                    "name": "user",
                    "type": "address"
                }
            ],
            "name": "getWinAmount",
            "outputs": [
                {
                    "internalType": "uint256",
                    "name": "",
                    "type": "uint256"
                }
            ],
            "stateMutability": "view",
            "type": "function"
        },
        {
            "inputs": [
                {
                    "internalType": "address",
                    "name": "_mead",
                    "type": "address"
                }
            ],
            "name": "initialize",
            "outputs": [],
            "stateMutability": "nonpayable",
            "type": "function"
        },
        {
            "inputs": [],
            "name": "mead",
            "outputs": [
                {
                    "internalType": "address",
                    "name": "",
                    "type": "address"
                }
            ],
            "stateMutability": "view",
            "type": "function"
        },
        {
            "inputs": [],
            "name": "owner",
            "outputs": [
                {
                    "internalType": "address",
                    "name": "",
                    "type": "address"
                }
            ],
            "stateMutability": "view",
            "type": "function"
        },
        {
            "inputs": [],
            "name": "renounceOwnership",
            "outputs": [],
            "stateMutability": "nonpayable",
            "type": "function"
        },
        {
            "inputs": [
                {
                    "internalType": "uint256",
                    "name": "gameId",
                    "type": "uint256"
                }
            ],
            "name": "roll",
            "outputs": [],
            "stateMutability": "nonpayable",
            "type": "function"
        },
        {
            "inputs": [
                {
                    "internalType": "address",
                    "name": "_mead",
                    "type": "address"
                }
            ],
            "name": "setMeadToken",
            "outputs": [],
            "stateMutability": "nonpayable",
            "type": "function"
        },
        {
            "inputs": [],
            "name": "totalGames",
            "outputs": [
                {
                    "internalType": "uint256",
                    "name": "",
                    "type": "uint256"
                }
            ],
            "stateMutability": "view",
            "type": "function"
        },
        {
            "inputs": [
                {
                    "internalType": "address",
                    "name": "newOwner",
                    "type": "address"
                }
            ],
            "name": "transferOwnership",
            "outputs": [],
            "stateMutability": "nonpayable",
            "type": "function"
        }
    ],
    "bytecode": "608060405234801561001057600080fd5b50611bcb806100206000396000f3fe608060405234801561001057600080fd5b50600436106101165760003560e01c80638da5cb5b116100a2578063c4d66de811610071578063c4d66de814610260578063ceedd91b14610273578063d8c656161461029c578063f2fde38b146102af578063f644b3bb146102c257600080fd5b80638da5cb5b146101ff57806396e21d4514610224578063b8746e7314610245578063c06d40381461025857600080fd5b80632c4e591b116100e95780632c4e591b1461019a57806348e837b9146101b1578063504131d6146101c4578063715018a6146101d757806381a60c0d146101df57600080fd5b8063038fbc191461011b578063117a5b90146101305780631f7b4f30146101745780632496589c14610187575b600080fd5b61012e6101293660046116d9565b610310565b005b61015d61013e3660046116d9565b6067602052600090815260409020805460019091015460ff9091169082565b60405161016b929190611708565b60405180910390f35b61012e6101823660046116d9565b61045b565b61012e610195366004611742565b610733565b6101a360665481565b60405190815260200161016b565b61012e6101bf3660046116d9565b61077f565b6101a36101d236600461175d565b610848565b61012e610b8a565b6101f26101ed3660046116d9565b610bc0565b60405161016b9190611789565b6033546001600160a01b03165b6040516001600160a01b03909116815260200161016b565b6102376102323660046117ba565b610c33565b60405161016b929190611801565b60655461020c906001600160a01b031681565b6101a3610ed8565b61012e61026e366004611742565b610f6e565b6101a3610281366004611742565b6001600160a01b031660009081526069602052604090205490565b61012e6102aa3660046118ae565b61104b565b61012e6102bd366004611742565b611236565b6103016102d036600461175d565b606860209081526000928352604080842090915290825290208054600182015460029092015460ff91821692911683565b60405161016b939291906118ea565b333b1561035b5760405162461bcd60e51b815260206004820152601460248201527318dbdb9d1c9858dd081b9bdd08185b1b1bddd95960621b60448201526064015b60405180910390fd5b3332146103aa5760405162461bcd60e51b815260206004820152601a60248201527f70726f787920636f6e7472616374206e6f7420616c6c6f7765640000000000006044820152606401610352565b806066548111156103cd5760405162461bcd60e51b81526004016103529061190e565b60006103d98333610848565b6000848152606860209081526040808320338085529252909120600201805460ff1916600117905560655491925061041b916001600160a01b031690836112d1565b604080518481526020810183905233917fa756e4d8f7509f4ea7c440cd474be2db34f2c8e4a142b5bfbee53cb92124c6df910160405180910390a2505050565b333b156104a15760405162461bcd60e51b815260206004820152601460248201527318dbdb9d1c9858dd081b9bdd08185b1b1bddd95960621b6044820152606401610352565b3332146104f05760405162461bcd60e51b815260206004820152601a60248201527f70726f787920636f6e7472616374206e6f7420616c6c6f7765640000000000006044820152606401610352565b806066548111156105135760405162461bcd60e51b81526004016103529061190e565b600082815260676020526040902060018101544210156105655760405162461bcd60e51b815260206004820152600d60248201526c4e6f7420726f6c6c2074696d6560981b6044820152606401610352565b6000815460ff16600181111561057d5761057d6116f2565b146105bb5760405162461bcd60e51b815260206004820152600e60248201526d105b1c9958591e481c9bdb1b195960921b6044820152606401610352565b600044426105ca60014361194d565b60408051602081019490945283019190915240606082015260800160408051601f198184030181529190528051602090910120905061060a60068261197a565b61061590600161198e565b60028301556106256006826119bc565b905061063260068261197a565b61063d90600161198e565b600383015561064d6006826119bc565b905061065a60068261197a565b61066590600161198e565b60048301556106756006826119bc565b905061068260068261197a565b61068d90600161198e565b600583015561069d6006826119bc565b90506106aa60068261197a565b6106b590600161198e565b60028301600401556106c86006826119bc565b90506106d560068261197a565b6106e090600161198e565b6007830155815460ff191660011782556040517ff3d5a3633666cb1a6c73da57dfc2af6d9aaea992186c625c1db07b18e0da02829061072590869060028601906119d0565b60405180910390a150505050565b6033546001600160a01b0316331461075d5760405162461bcd60e51b815260040161035290611a08565b606580546001600160a01b0319166001600160a01b0392909216919091179055565b61078c426201518061198e565b81106107d35760405162461bcd60e51b81526020600482015260166024820152754d6178203120646179206265747765656e2067616d6560501b6044820152606401610352565b6066546107e190600161198e565b60668181556000918252606760209081526040808420805460ff191690558254845292839020600101849055905482519081529081018390527fa26856d25e558c79e1632806bc6824075cf59885a115825f2aab62385a3f7142910160405180910390a150565b600082815260676020526040808220815160608101909252805483929190829060ff16600181111561087c5761087c6116f2565b600181111561088d5761088d6116f2565b8152600182015460208201526040805160c0810182529101906002830160068282826020028201915b8154815260200190600101908083116108b6575050509190925250505060008581526068602090815260408083206001600160a01b038816845290915280822081516060810190925280549394509192909190829060ff16600281111561091f5761091f6116f2565b6002811115610930576109306116f2565b8152600182015460208083019190915260029092015460ff16151560409091015281015190915061098c5760405162461bcd60e51b8152602060048201526006602482015265139bc818995d60d21b6044820152606401610352565b6001825160018111156109a1576109a16116f2565b146109df5760405162461bcd60e51b815260206004820152600e60248201526d139bdd081c9bdb1b1959081e595d60921b6044820152606401610352565b6000815160028111156109f4576109f46116f2565b03610a6b5760005b6006811015610a5157600283604001518260068110610a1d57610a1d6119a6565b6020020151610a2c919061197a565b600103610a3f5760009350505050610b84565b610a4a60018261198e565b90506109fc565b506020810151610a62906002611a3d565b92505050610b84565b600181516002811115610a8057610a806116f2565b03610add5760005b6006811015610a5157600283604001518260068110610aa957610aa96119a6565b6020020151610ab8919061197a565b600003610acb5760009350505050610b84565b610ad660018261198e565b9050610a88565b600281516002811115610af257610af26116f2565b03610b7d5760005b6006811015610b6c5782604001518160068110610b1957610b196119a6565b6020020151600114158015610b49575082604001518160068110610b3f57610b3f6119a6565b6020020151600214155b15610b5a5760009350505050610b84565b610b6560018261198e565b9050610afa565b506020810151610a62906007611a3d565b6000925050505b92915050565b6033546001600160a01b03163314610bb45760405162461bcd60e51b815260040161035290611a08565b610bbe6000611339565b565b610bc861167d565b81606654811115610beb5760405162461bcd60e51b81526004016103529061190e565b60008381526067602052604090819020815160c0810190925260020160068282826020028201915b815481526020019060010190808311610c13575050505050915050919050565b6001600160a01b03831660009081526069602052604081208054606092918491610c5e90879061194d565b821115610c75578054610c7290879061194d565b91505b8167ffffffffffffffff811115610c8e57610c8e611a5c565b604051908082528060200260200182016040528015610cc757816020015b610cb461169b565b815260200190600190039081610cac5790505b50935060005b82811015610ebe57600082610ce2838a61198e565b81548110610cf257610cf26119a6565b60009182526020808320909101548083526068825260408084206001600160a01b038e168552909252912080548851929350909160ff90911690889085908110610d3e57610d3e6119a6565b6020026020010151600001906002811115610d5b57610d5b6116f2565b90816002811115610d6e57610d6e6116f2565b815250508060010154878481518110610d8957610d896119a6565b60209081029190910181015101526002810154875160ff90911690889085908110610db657610db66119a6565b6020026020010151604001901515908115158152505081878481518110610ddf57610ddf6119a6565b602090810291909101015160600152600160008381526067602052604090205460ff166001811115610e1357610e136116f2565b03610ea957610e22828b610848565b878481518110610e3457610e346119a6565b6020908102919091018101516080019190915260008381526067909152604090819020815160c0810190925260020160068282826020028201915b815481526020019060010190808311610e6f575050505050878481518110610e9957610e996119a6565b602002602001015160a001819052505b50508080610eb690611a72565b915050610ccd565b5083610eca838861198e565b935093505050935093915050565b606654600090815260676020526040812081815460ff166001811115610f0057610f006116f2565b14610f465760405162461bcd60e51b8152602060048201526016602482015275111a58d9481a5cc8185b1c9958591e481c9bdb1b195960521b6044820152606401610352565b42816001015411610f58576000610f68565b428160010154610f68919061194d565b91505090565b600054610100900460ff16610f895760005460ff1615610f8d565b303b155b610ff05760405162461bcd60e51b815260206004820152602e60248201527f496e697469616c697a61626c653a20636f6e747261637420697320616c72656160448201526d191e481a5b9a5d1a585b1a5e995960921b6064820152608401610352565b600054610100900460ff16158015611012576000805461ffff19166101011790555b61101a61138b565b606580546001600160a01b0319166001600160a01b0384161790558015611047576000805461ff00191690555b5050565b8260665481111561106e5760405162461bcd60e51b81526004016103529061190e565b60008481526067602052604081205460ff166001811115611091576110916116f2565b146110d75760405162461bcd60e51b8152602060048201526016602482015275111a58d9481a5cc8185b1c9958591e481c9bdb1b195960521b6044820152606401610352565b6000821161111d5760405162461bcd60e51b8152602060048201526013602482015272125b9d985b1a59081e995c9bc8185b5bdd5b9d606a1b6044820152606401610352565b6000848152606860209081526040808320338452909152902060010154156111755760405162461bcd60e51b815260206004820152600b60248201526a105b1c9958591e4818995d60aa1b6044820152606401610352565b60655461118d906001600160a01b03163330856113ba565b600084815260686020908152604080832033845290915290206001808201849055815485929160ff19909116908360028111156111cc576111cc6116f2565b021790555033600081815260696020908152604080832080546001810182559084529190922001869055517f870068e0008ddeca6d0c42af8f45c05c3696dc55b107baa38cd71dc64ae461229061122890879087908790611a8b565b60405180910390a250505050565b6033546001600160a01b031633146112605760405162461bcd60e51b815260040161035290611a08565b6001600160a01b0381166112c55760405162461bcd60e51b815260206004820152602660248201527f4f776e61626c653a206e6577206f776e657220697320746865207a65726f206160448201526564647265737360d01b6064820152608401610352565b6112ce81611339565b50565b6040516001600160a01b03831660248201526044810182905261133490849063a9059cbb60e01b906064015b60408051601f198184030181529190526020810180516001600160e01b03166001600160e01b0319909316929092179091526113f8565b505050565b603380546001600160a01b038381166001600160a01b0319831681179093556040519116919082907f8be0079c531659141344cd1fd0a4f28419497f9722a3daafe3b4186f6b6457e090600090a35050565b600054610100900460ff166113b25760405162461bcd60e51b815260040161035290611aad565b610bbe6114ca565b6040516001600160a01b03808516602483015283166044820152606481018290526113f29085906323b872dd60e01b906084016112fd565b50505050565b600061144d826040518060400160405280602081526020017f5361666545524332303a206c6f772d6c6576656c2063616c6c206661696c6564815250856001600160a01b03166114fa9092919063ffffffff16565b805190915015611334578080602001905181019061146b9190611af8565b6113345760405162461bcd60e51b815260206004820152602a60248201527f5361666545524332303a204552433230206f7065726174696f6e20646964206e6044820152691bdd081cdd58d8d9595960b21b6064820152608401610352565b600054610100900460ff166114f15760405162461bcd60e51b815260040161035290611aad565b610bbe33611339565b60606115098484600085611513565b90505b9392505050565b6060824710156115745760405162461bcd60e51b815260206004820152602660248201527f416464726573733a20696e73756666696369656e742062616c616e636520666f6044820152651c8818d85b1b60d21b6064820152608401610352565b6001600160a01b0385163b6115cb5760405162461bcd60e51b815260206004820152601d60248201527f416464726573733a2063616c6c20746f206e6f6e2d636f6e74726163740000006044820152606401610352565b600080866001600160a01b031685876040516115e79190611b46565b60006040518083038185875af1925050503d8060008114611624576040519150601f19603f3d011682016040523d82523d6000602084013e611629565b606091505b5091509150611639828286611644565b979650505050505050565b6060831561165357508161150c565b8251156116635782518084602001fd5b8160405162461bcd60e51b81526004016103529190611b62565b6040518060c001604052806006906020820280368337509192915050565b6040805160c0810190915280600081526020016000815260200160001515815260200160008152602001600081526020016116d461167d565b905290565b6000602082840312156116eb57600080fd5b5035919050565b634e487b7160e01b600052602160045260246000fd5b604081016002841061171c5761171c6116f2565b9281526020015290565b80356001600160a01b038116811461173d57600080fd5b919050565b60006020828403121561175457600080fd5b61150c82611726565b6000806040838503121561177057600080fd5b8235915061178060208401611726565b90509250929050565b60c08101818360005b60068110156117b1578151835260209283019290910190600101611792565b50505092915050565b6000806000606084860312156117cf57600080fd5b6117d884611726565b95602085013595506040909401359392505050565b600381106117fd576117fd6116f2565b9052565b604080825283518282018190526000919060609081850190602080890186805b848110156118995782516118368782516117ed565b80850151878601528881015115158988015287810151888801526080808201519088015260a090810151908701835b600681101561188257825182529186019190860190600101611865565b505050610160959095019491830191600101611821565b50505095909501959095525092949350505050565b6000806000606084860312156118c357600080fd5b833592506020840135600381106118d957600080fd5b929592945050506040919091013590565b606081016118f882866117ed565b8360208301528215156040830152949350505050565b6020808252600f908201526e125b9d985b1a590819d85b59481a59608a1b604082015260600190565b634e487b7160e01b600052601160045260246000fd5b60008282101561195f5761195f611937565b500390565b634e487b7160e01b600052601260045260246000fd5b60008261198957611989611964565b500690565b600082198211156119a1576119a1611937565b500190565b634e487b7160e01b600052603260045260246000fd5b6000826119cb576119cb611964565b500490565b82815260e0810160208083018460005b60068110156119fd578154835291830191600191820191016119e0565b505050509392505050565b6020808252818101527f4f776e61626c653a2063616c6c6572206973206e6f7420746865206f776e6572604082015260600190565b6000816000190483118215151615611a5757611a57611937565b500290565b634e487b7160e01b600052604160045260246000fd5b600060018201611a8457611a84611937565b5060010190565b83815260608101611a9f60208301856117ed565b826040830152949350505050565b6020808252602b908201527f496e697469616c697a61626c653a20636f6e7472616374206973206e6f74206960408201526a6e697469616c697a696e6760a81b606082015260800190565b600060208284031215611b0a57600080fd5b8151801515811461150c57600080fd5b60005b83811015611b35578181015183820152602001611b1d565b838111156113f25750506000910152565b60008251611b58818460208701611b1a565b9190910192915050565b6020815260008251806020840152611b81816040850160208701611b1a565b601f01601f1916919091016040019291505056fea264697066735822122097e68b6aef881f0fc17110c7073225837bdd4a5b5094c1e2268a95fc6a7b821c64736f6c634300080d0033",
    "sourcePath": "c:/Users/EddyBOUGHIOUL/source/repos/tavern-contracts/contracts/Game.sol",
    "compiler": {
        "name": "solc",
        "version": "0.8.13+commit.abaa5c0e"
    },
    "functionHashes": {
        "betOnGame(uint256,uint8,uint256)": "d8c65616",
        "bets(uint256,address)": "f644b3bb",
        "claimWinAmount(uint256)": "038fbc19",
        "countPlayerBets(address)": "ceedd91b",
        "createGame(uint256)": "48e837b9",
        "fetchPlayerBets(address,uint256,uint256)": "96e21d45",
        "games(uint256)": "117a5b90",
        "getNextRoll()": "c06d4038",
        "getResults(uint256)": "81a60c0d",
        "getWinAmount(uint256,address)": "504131d6",
        "initialize(address)": "c4d66de8",
        "mead()": "b8746e73",
        "owner()": "8da5cb5b",
        "renounceOwnership()": "715018a6",
        "roll(uint256)": "1f7b4f30",
        "setMeadToken(address)": "2496589c",
        "totalGames()": "2c4e591b",
        "transferOwnership(address)": "f2fde38b"
    },
    "gasEstimates": {
        "creation": {
            "codeDepositCost": "1423000",
            "executionCost": "1486",
            "totalCost": "1424486"
        },
        "external": {
            "betOnGame(uint256,uint8,uint256)": "infinite",
            "bets(uint256,address)": "7105",
            "claimWinAmount(uint256)": "infinite",
            "countPlayerBets(address)": "2581",
            "createGame(uint256)": "infinite",
            "fetchPlayerBets(address,uint256,uint256)": "infinite",
            "games(uint256)": "4676",
            "getNextRoll()": "8933",
            "getResults(uint256)": "infinite",
            "getWinAmount(uint256,address)": "infinite",
            "initialize(address)": "infinite",
            "mead()": "2404",
            "owner()": "2343",
            "renounceOwnership()": "28206",
            "roll(uint256)": "infinite",
            "setMeadToken(address)": "26801",
            "totalGames()": "2318",
            "transferOwnership(address)": "28400"
        },
        "internal": {
            "_isContract(address)": "infinite"
        }
    }
}